:020000040800F2
:1000000000180020C90200088502000887020008C5
:10001000890200088B0200088D0200080000000021
:100020000000000000000000000000008F02000837
:1000300091020008000000009302000895020008E9
:100040001103000811030008110300081103000840
:100050001103000811030008110300081103000830
:100060001103000811030008110300081103000820
:100070001103000811030008110300081103000810
:100080001103000811030008110300081103000800
:1000900011030008110300081103000811030008F0
:1000A00011030008110300081103000811030008E0
:1000B00011030008110300080000000011030008EC
:1000C00011030008000000000000000011030008F8
:1000D00000000000110300081103000800000000E8
:1000E00011030008110300081103000800000000BC
:1000F0000000000000000000000000000000000000
:0C01000000000000000000005FF808F1A3
:10010C0010B5054C237833B9044B13B10448AFF345
:10011C0000800123237010BD0400002000000000AB
:10012C008C04000808B5034B1BB103490348AFF31B
:10013C00008008BD00000000080000208C040008AE
:10014C0008B5194B1A6822F007021A601A68510791
:10015C00FCD1164B1A6822F0F80242F080021A60A9
:10016C001A6842F001021A601A689207FCD55A68A4
:10017C0022F0F0025A605A6822F4E0625A605A681F
:10018C0022F460525A605A6822F003025A605A688C
:10019C0012F00C0FFBD1064800F03BF9BDE808400B
:1001AC00034800F043B900BF002002400010024099
:1001BC0000127A002B4C00B5A36989B043F00103FF
:1001CC00A361A369284903F001030193019BE3692F
:1001DC0043F08053E361E36903F080530093009B89
:1001EC00CA68224B22F4E0621204120C1343CB6057
:1001FC00CB68C3F30223C3F107001A1D042828BFE0
:10020C000420062A88BFDA1E4FF0FF3303FA00F3EE
:10021C0098BF0022DB4393401B01154ADBB281F8E7
:10022C002330536823F0E06343F000735360FFF70F
:10023C0087FF00220792A369012143F00403A36105
:10024C00A36940F2022403F004030293029B0223ED
:10025C0008484361CDE9034103A9CDE9053200F01B
:10026C0052F8FEE70010024000ED00E00003FA0532
:10027C000000014000080140FEE7FEE7FEE7FEE754
:10028C00FEE770477047704709490B885A1CB3F555
:10029C007A7F0A800BD10748C3681A04DB4302F447
:1002AC00003203F002031343036100230B807047F9
:1002BC00200000200008014070470000FFF7FCFF01
:1002CC000B480C490C4A002302E0D458C4500433A8
:1002DC00C4188C42F9D3094A094C002301E013607D
:1002EC000432A242FBD300F0A7F8FFF763FF70477C
:1002FC000000002004000020AC04000804000020D2
:10030C0024000020FEE72DE9F04F0D680446C5F3EC
:10031C000F2595FAA5F20326B2FA82F204274FF0C4
:10032C00011C40F2011E35FA02F001D1BDE8F08F3C
:10033C00012393402B426AD0072A88BFA2F10803FD
:10034C00D1F804A08ABF0CFA03F30EFA02F343F0BF
:10035C008063BAF1080F0ED1E0684FEA132898FABF
:10036C00A8F9B9FA89F920EA0808086900FA09F02D
:10037C0048EA0000E0604FEA136893FAA3F9B9FA6F
:10038C0089F993FAA3FB0F20BBFA8BFB4FEA89097F
:10039C0000FA09F954F808004FEA8B0B20EA090916
:1003AC000AFA0BFA49EA0A0A44F808A0486820F04D
:1003BC00080001282BD193FAA3F9B9FA89F993FA19
:1003CC00A3F0B0FA80F04FEA890906FA09F92AEA93
:1003DC0009094FEA800A886800FA0AF049EA000025
:1003EC0044F8080093FAA3F9B9FA89F993FAA3F33C
:1003FC00B3FA83F34FEA890907FA09F920EA0909E4
:10040C00C8689B00984049EA000044F80800013293
:10041C0089E74FF47A73B0FBF3F000224FF0E0233E
:10042C00013858619A6107221A617047014B1860B4
:10043C00704700BF0000002070B500260C4D0D4C1D
:10044C00641BA410A64209D100F01AF800260A4D2C
:10045C000A4C641BA410A64205D170BD55F8043B90
:10046C0098470136EEE755F8043B98470136F2E71A
:10047C00A4040008A4040008A4040008A8040008AC
:10048C00F8B500BFF8BC08BC9E467047F8B500BF75
:08049C00F8BC08BC9E46704745
:0404A400310100081A
:0404A8000D0100083A
:0404AC000024F40034
:04000005080002C924
:00000001FF
